:020000040000FA
:060000001DEF19F01200D3
:0600080004EF08F01200F5
:060018000CEF08F01200DD
:061000001DEF19F01200C3
:021006001200D6
:0610080016EF08F01200D3
:0610180019EF08F01200C0
:02101E000100CF
:0C10200056320000A00000003500000067
:04102C004AEC0FF08B
:101030001100D8CFE4FFE0CFE4FFE46E4AEC0FF0FC
:10104000E550E5CFE0FFE5CFD8FF100004D8F9EC7C
:101050000FF009D9FCD70F0EC11202D894EF0FF090
:1010600058EC0FF0060EE126010EF36E040EF3CFDE
:10107000DBFFF00E936E94688B687E6A7F6AF19E48
:101080007888788A788C788E0001E56BE66BE76B60
:10109000E86BE96BEA6BEB6BEC6B0001A66BA76B83
:1010A000A86BA96B02016C6B6CC26BF26CC26AF22A
:1010B0006CC269F26F6B6FC26EF26FC26DF20201A9
:1010C000686B68C267F268C266F268C265F268C29D
:1010D00064F268C263F268C262F268C261F200013F
:1010E000D86BD8C0D7F0D8C0D6F0D8C0D5F0F3ECC4
:1010F0000EF0E4C0DEF0E4C0DDF0D96BDA6B800EF8
:10110000DB6FDC6FDE6ADD6AB7EC0EF002E61EEC28
:101110000FF055E238EC0FF0CEEC0EF002E63DECAD
:101120000FF048E2BBEC0EF0B60E1626000E1722AA
:10113000020EDB501624146E030EDB501720156EC2
:1011400014C0E6FFE66E030EE66E050EE66EDECF19
:101150001CF0DDCF1DF0030E1D02F3CF1DF01C02AD
:10116000F3CF1CF0F4501D26020EDB50F3241A6E50
:10117000030EDB501D201B6E050E086E096A1AC097
:101180000DF01BC00EF053EC18F006C018F007C0AD
:1011900019F006C0E6FF07C0E6FF02EC17F01E6E6E
:1011A000060EE15E1E50E76E050E2DEC0FF0B4E367
:1011B000DB2AB2D7DF2A010EA7E3DB2AA5D700017D
:1011C000B6514AE0B60548E0020EB65D45E0DE6A7B
:1011D000DD6AB7EC0EF002E61EEC0FF03DE238ECF3
:1011E0000FF0CEEC0EF002E63DEC0FF030E285ECB5
:1011F0000EF0EF6A050EE66EE66ADECF18F0DDCF80
:1012000019F0030E1902F3CF19F01802F3CF18F0FA
:10121000F4501926020EDB50F324166E030EDB5039
:101220001920176E050E086E096A16C00DF017C05A
:101230000EF053EC18F006C014F007C015F0FFECE8
:101240000EF0050E2DEC0FF0CCE3DB2ACAD7DF2A17
:10125000010EBFE3DB2ABDD7060EE15C02E2E16AC4
:10126000E55233EF0FF058EC0FF0090EE126200E97
:101270000001E76E6019E8AE02D0E73402D0E75013
:10128000605D02E294EF0DF06450020B02E094EF17
:101290000DF09AEC0DF0020EF36E040EF3CFDBFFAF
:1012A000050EDB6A0001ED6BEE6BEF6BF06BF16B23
:1012B000F26BF36BF46BF56BF66BDE6ADD6AB7EC21
:1012C0000EF002E61EEC0FF001E3E4D076EC0EF037
:1012D000EF50020A01E1AED0030A01E181D0010A18
:1012E00001E0D2D09AEC0EF001E0CED066EC0FF027
:1012F00003E10001D58170D076EC0EF076EC0FF0B2
:10130000EF0403E10001D58367D066EC0FF002081B
:1013100003E10001D58560D066EC0FF003080AE117
:101320000001010EED6FF35157E169EC0FF0EFCFC3
:10133000F3F052D066EC0FF004080AE10001010E50
:10134000EE6FF45149E169EC0FF0EFCFF4F044D0C7
:1013500066EC0FF005080AE10001010EEF6FF55190
:101360003BE169EC0FF0EFCFF5F036D066EC0FF013
:10137000060806E10001010EF06FF6512DE128D0BC
:1013800066EC0FF0070808E10001010EF16F69EC4F
:101390000FF0EFCFF7F020D066EC0FF0080808E16F
:1013A0000001010EF26F69EC0FF0EFCFF8F014D0EE
:1013B00066EC0FF0090810E169EC0FF0EFCFF3F0E5
:1013C00069EC0FF0EFCFF4F069EC0FF0EFCFF5F030
:1013D00069EC0FF0EFCFF6F00001050ED36F54D09B
:1013E0009AEC0EF051E1D950040FE96EDACFEAFF22
:1013F000080EEE1801E1ED5019E069EC0FF0EF5026
:101400000001DD1366EC0FF0E66E040EDBCFE9FFA2
:10141000050EDBCFEAFFDD0EE926000EEA2262ECC4
:101420000FF0040EDB2A050E01E3DB2A0001050E96
:10143000D46F2AD09AEC0EF027E166EC0FF0010B86
:1014400002E00001DC6B66EC0FF0020B02E0000131
:10145000DC6966EC0FF0040B02E00001DB6B66EC6C
:101460000FF0080B02E00001DB6969EC0FF0EF50B0
:101470000001D91376EC0EF076EC0FF0EF380F0B7D
:10148000DA130001050ED26FDF2A010E01E217D731
:10149000DB2A15D70001E551E61102E1000E08D064
:1014A000E5C0E9FFE6C0EAFFEF50800B01E0010E66
:1014B000000901E020D1ED0521E1F35142EC0FF0EC
:1014C0000001AA271550AB23AB351BE2AA51320805
:1014D000000EAB5516E2AAC014F0ABC015F07BECC1
:1014E0000FF0A9EC0EF006C0D7F07BEC0FF02DEC5E
:1014F00018F004C0AAF005C0ABF003D00001AA6B3D
:10150000AB6B0001EE0529E1F45142EC0FF0000154
:10151000AC271550AD23AD3523E2AC513208000E97
:10152000AD551EE2320E146E156AACC008F0ADC0A7
:1015300009F00D6E15C00EF02DEC18F008C0D7F0B4
:1015400046EC0FF0ACC008F0ADC009F02DEC18F07F
:1015500004C0ACF005C0ADF003D00001AC6BAD6BC6
:101560000001EF0520E1F55142EC0FF00001AE273C
:101570001550AF23AF351AE2AE513208000EAF5509
:1015800015E2AEC014F0AFC015F081EC0FF0E1DB56
:1015900006C0D6F081EC0FF02DEC18F004C0AEF0D0
:1015A00005C0AFF003D00001AE6BAF6B0001F005DA
:1015B00029E1F65142EC0FF00001B0271550B1239C
:1015C000B13523E2B0513208000EB1551EE2320EA1
:1015D000146E156AB0C008F0B1C009F00D6E15C0E8
:1015E0000EF02DEC18F008C0D6F046EC0FF0B0C0AD
:1015F00008F0B1C009F02DEC18F004C0B0F005C03F
:10160000B1F003D00001B06BB16B0001F1052AE12C
:10161000F75142EC0FF00001B2271550B323B33558
:1016200024E2B251E808030EB3551FE2E80E146E2F
:10163000030E156EB2C008F0B3C009F014C00DF06F
:101640000E6E2DEC18F008C0D8F05DEC0FF0B2C0B3
:1016500008F0B3C009F02DEC18F004C0B2F005C0DA
:10166000B3F003D00001B26BB36B0001F20520E1CF
:10167000F85142EC0FF00001B4271550B523B535F1
:101680001AE2B451E808030EB55515E2B4C014F0DF
:10169000B5C015F087EC0FF05CDB06C0D8F087EC26
:1016A0000FF02DEC18F004C0B4F005C0B5F003D075
:1016B0000001B46BB56BD5C06DF2D6C06EF2D7C069
:1016C0006FF2D8C070F20001D56BD66BD76BD86BB8
:1016D0000001D35100080FE2040EE66E6D0EE66EB7
:1016E000020EE66E010EE66E2CDBF3CFE5F0F4CFD2
:1016F000E6F00001D3070001E951EA1102E1000E12
:1017000008D0E9C0E9FFEAC0EAFFEF50800B01E032
:10171000010E000927E1DDC061F2DEC062F2DFC028
:1017200063F2E0C064F2E1C065F2E2C066F2E3C0D9
:1017300067F2E4C068F257DBE4C0DDF00001D45189
:10174000000810E2080EE66E610EE66E020EE66E0E
:10175000010EE66E030EF5DAF3CFE9F0F4CFEAF00E
:101760000001D4070001EB51EC1102E1000E08D09A
:10177000EBC0E9FFECC0EAFFEF50800B01E0010E87
:1017800000090DE1010EE66E600EE66E020EE66ED9
:10179000E66A030ED6DAF3CFEBF0F4CFECF00001FB
:1017A000E751E81102E1000E08D0E7C0E9FFE8C008
:1017B000EAFFEF50800B01E0010E000921E1D9C0E2
:1017C00069F2DAC06AF2DBC06BF2DCC06CF2D96B92
:1017D000DA6B800EDB6FDC6F0001D251000810E283
:1017E000040EE66E690EE66E020EE66E010EE66E01
:1017F000020EA7DAF3CFE7F0F4CFE8F00001D2074A
:101800000001A651A71102E1000E08D0A6C0E9FF11
:10181000A7C0EAFFEF50800B01E0010E000901E0D4
:1018200083D102017951560A01E109D1610A01E12E
:10183000C1D0B60A62E0010A01E069D1050E865DF9
:1018400001E065D1AA0E875D01E061D1550E885D8A
:1018500001E05DD10A0E895D01E059D10F0E8A5D6C
:1018600001E055D1DE6ADD6A82DA01E6E7DA01E3FA
:101870004ED1FEDA93DA01E600DB3AE27CDA010EC1
:101880001626000EE0DA790EE926020EEA22EF5063
:10189000E66E3BDA17DB050EE66E37DAEF50E66EE2
:1018A000DECF1AF0DDCF1BF0030E1B02F3CF1BF0CF
:1018B0001A02F3CF1AF0F4501B26020EDB50F32469
:1018C000186E030EDB501B20196E050E086E096A98
:1018D00018C00DF019C00EF053EC18F006C016F049
:1018E00007C017F08CDA080EB8DAC4E3DB2AC2D7D7
:1018F000DF2A010EB9E3DB2AB7D7810EB96FBA6BC5
:10190000BB6BDE6ADD6A33DA04E6080E145C000E97
:1019100015581AE2C6DA04E6040E165C000E1758D3
:1019200013E208DA0CE1010EDF5206E0DFCFF3FF2D
:10193000E846FE0BF306FCE10201BA11BA6FDF2A9A
:10194000010EE1E3DB2ADFD7080EDE6EDD6A0FDA77
:1019500004E6100E145C000E15581FE2A2DA04E62D
:10196000040E165C000E175818E2E4D911E1B4DA3F
:10197000080E145E000E155A010E14C0E7FFE75260
:1019800004E0E846FE0BE706FCE10201BB11BB6F79
:10199000DF2A010EDCE3DB2ADAD70001A851A91106
:1019A00002E1000E03D010DA01E0010E000901E0AF
:1019B000AED09FD00001A851A91102E1000E03D0C2
:1019C00003DA01E0010E000901E0A1D00201370EA7
:1019D000B96FDE6ADD6ACBD901E630DA24E248DA93
:1019E000DDD901E64ADA1AE2C6D9B60E1626000E8D
:1019F0002ADAEF50E66E91DAF4501526020EDB502B
:101A0000F324E96E030EDB501520EA6ED7D95ADABB
:101A1000020EDB2A030EE4E3DB2AE2D7DF2A010E03
:101A2000DAE3DB2AD8D70001A851A91102E1000EA0
:101A300003D0CAD901E0010E000969E15AD0560E5F
:101A4000B96FA00EE66E000EE66EE9EC18F0E552F6
:101A5000E552060EF3CFDBFF146ADB50E76E141875
:101A6000E8AE02D0E73402D0E750145C35E2060E4F
:101A7000DBCF15F03E0EE76E1518E8AE02D0153438
:101A800003D0E750D880155427E3DE6ADD6A24DAF4
:101A9000060EDBCF16F0176A16BE1768155017181A
:101AA000E8AE02D0173404D01650145C1750155805
:101AB0000FE217DAA00EE926000EEA22EF50E66EDA
:101AC00010DA7CD9FFD9DF2A010EE1E3DB2ADFD768
:101AD00008DA74D9EF6A02D00201BA6B0001A8518A
:101AE000A91102E1000E03D06FD901E0010E000937
:101AF0000EE1400EE66EB90EE66E020EE66E010EC7
:101B0000E66E040E1ED9F3CFA8F0F4CFA9F0400E74
:101B1000E66E790EE66E020EE66EE66A040E11D9E6
:101B2000F3CFA6F0F4CFA7F0090EE15C02E2E16A80
:101B3000E55299D1BDD9050EE1268150100B01E087
:101B4000010EE76E010EE7CFDBFF8250040B01E0D0
:101B5000010EE76E020EE7CFDBFF8250020B01E0C1
:101B6000010EE76E030EE7CFDBFF8250010BE76E3D
:101B7000040EE7CFDBFFDF6A040EDF5C42E2D950E0
:101B8000010F146EDF501424E96E000EDA20EA6EA5
:101B9000EF5012E140D9EA22EF2A3DD9EA22EFCFF5
:101BA00014F0140E145C1BE33CD9EA22EF6AFFD850
:101BB000010EEF6E30D910D034D9EA22EF2A31D994
:101BC000EA22EFCF14F0140E145C09E324D9EA22C0
:101BD000EF6AEDD8EF6A25D9EA22140EEF6E27D905
:101BE000EF5003E1E4D8EF0405E021D9EF0402E16E
:101BF000DED8EF50DCD8EF50E66E19D963D9DF2A72
:101C0000BBD7050EE15C02E2E16AE5522CD112007D
:101C10001200120012009CEF17F012001E0EE66E6A
:101C2000010ED9D8020ED7D8030ED5D8040EE66E11
:101C30008EEC10F0E552E552120064840001080EAB
:101C4000F96F070EFA6FF907000EFA5BF951FA11F6
:101C5000FAE164941200D9CFE6FFE1CFD9FFFD0E7F
:101C6000DBCF08F0FE0EDBCF09F0720E081801E1A1
:101C7000095033E0E868081802E17F0E09182BE0EC
:101C8000740E081801E1095024E0750E081801E1EE
:101C900009501DE0730E081801E1095016E0030E0B
:101CA000081801E109500FE0020E081801E109507F
:101CB00008E0010E081801E1095001E010D0AEDF84
:101CC0000FD0ABDF0DD0A7DF0BD0A3DF09D09FDF94
:101CD00007D09EDF05D09EDF03D0000001D000D0EA
:101CE000010E00D0E552E7CFD9FF1200FAD8030E5B
:101CF000EA02F3CFEAFFE902F3CFE9FFF450EA2664
:101D0000B60EE926000EEA22120007D9F3CF14F02E
:101D1000F4501526B60E1426000E1522020EDB50C6
:101D20001424E96E030EDB501520EA6E1200DED893
:101D3000EF501200D6D8C20EE926000EEA22EF04B8
:101D40001200E66EB2EC10F0146E050EE15E145057
:101D500012002DEC18F008C014F009C015F0086846
:101D6000096814C00DF015C00EF053EF18F0B4D888
:101D7000D89015501200DECF16F0DDCF17F0030E0D
:101D80001702F3CF17F01602F3CF16F0F450172610
:101D90001200020EE926000EEA221200020EDBCF2C
:101DA00014F0030EDBCF15F0D89015501200DF5061
:101DB000EA6AC20FE96E000EEA22120097D8B90E45
:101DC000E926020EEA221200A8C0E9FFA9C0EAFF34
:101DD000EF50800B1200E66E8EEC10F0E552E552EB
:101DE0001E0EE66E1200E46BE4C0E3F0E4C0E2F025
:101DF000E4C0E1F0E4C0E0F0E4C0DFF0120006C0AF
:101E0000E6FF07C0E6FF4BEC17F0E552E552E5525E
:101E1000E552E76E1200DF50EA6ACA0FE96E000E63
:101E20001200DF50EA6ACE0FE96E000E1200DF509A
:101E3000EA6AC60FE96E000EEA221200040E145C74
:101E4000000E155812001722020EDB501624E96E00
:101E5000030EDB501720EA6E1200E7CFDBFF020E05
:101E6000DB2A030E1200E16EE552E7CFD9FF120024
:101E7000020EDB6A030EDB6A1200030E145C000E16
:101E800015581200146E156A14501200320E0D6EA1
:101E90000E6A1200DACFE4FFE652E552E5CFDAFF30
:101EA0001200DECF16F0DDCF17F0D89017501200D9
:101EB000D9CFE6FFE1CFD9FF1200E80E0D6E030E79
:101EC0000E6E1200E552E750EF6E12000FDF97EF33
:101ED0000EF00CDFC9EF0EF0DECF14F0DDCF15F001
:101EE0001200DECFE9FFDDCFEAFF1200010EE92686
:101EF000000EEA221200CADFAAC008F0ABC009F047
:101F00001200C4DFAEC008F0AFC009F01200D5DF88
:101F1000B4C008F0B5C009F01200DEDF030E1502F0
:081F2000F3CF15F014021200CA
:081F2800D9EC15F0A0940F01A3
:101F30005F6B626A536BB8EC15F05FEC15F0DF6A0B
:101F4000DF50146E156A140E145C000E155810E262
:101F5000DF50040DF3CFE9FFF4CFEAFF000EE926CE
:101F6000020EEA22EE6AEE6AEE6AEE6ADF2AE8D72D
:101F7000648C0F015C6B6498649C62A607D06296C7
:101F800000017F6B846B856B866BF7D70001010EB8
:101F90009C6F9D6F9E6B9F6B8C6BDF6A050EDF5C89
:101FA00011E2EA6ADF34DCEC15F0EA22EE6AED6A4F
:101FB000EA6ADF34E3EC15F0EA22EE6AED6A28EC17
:101FC00015F0ECD70001080E716F020E726F0F0151
:101FD000160E536F0201500E026F020E036F080EB1
:101FE000016F840E006F0001616B606BE552FAEFC8
:101FF00014F0D9EC15F0000160510BE1646A606ADD
:102000005FEC15F064B602D06486FCD70001010EC7
:10201000606F600508E164BA06D0626A606A608039
:102020006088020E606F6250040B05E06050040B84
:1020300002E0629422DB64B23ED06250010B08E001
:102040006050010B05E070DF0001040E606F6290CC
:102050006250100B05E06050100B02E004DB629848
:1020600062AC08D060AC05D077EC15F0730EE7ECED
:1020700014F0629C6250200B04E06050200B01E0E1
:10208000E1DA6250020B0CE06050020B09E077ECE1
:1020900015F0E6687F0EE66EEAEC15F00F015F6B57
:1020A000040E0001E76E6019E8AE02D0E73402D0FA
:1020B000E750605D02E2A1942ED060A62BD0DF6ACB
:1020C000040EDF5C27E262A625D063CF8DF000010D
:1020D0008D51780BE842E842E8428E6F62968DB5EA
:1020E00004D08E51F1EC15F003D08E51F6EC15F0C2
:1020F000EA22EF708E5102E1CCDA0AD0000EE66ED1
:10210000E66A8D0EE66E000EE66E720EE7EC14F0D7
:10211000DF2AD6D7A194E552FAEF14F0AAEC15F015
:10212000FD0EDBA403D0E66A67EC15F0FD0EDBA222
:1021300004D0010EE66E67EC15F0FE0EDB50156A5A
:10214000530F146E0F0E59EC15F0EBEC14F0FD0E5E
:10215000DBCFEFFF020EE15C02E2E16AE552E16EE5
:10216000FAEF14F0AAEC15F0FD0EDB5003E0E2EC00
:1021700014F002D019EC15F045EC15F0D9CFE9FFB9
:10218000DACFEAFFEE50ED1003E1F36AF46A28D0EB
:10219000EBEC14F005EC16F0FB0EDBCFEEFFFC0EC3
:1021A000DBCFEDFFEBEC14F0EE52FA0EDBCFEFFFDE
:1021B000400EFBEC15F0880E0AEC16F0FD0EDB501D
:1021C00003E0E2EC14F002D019EC15F0EA22EF740F
:1021D000DECF14F0DDCF15F014C0F3FF15C0F4FF0F
:1021E000020EE15C02E2E16AE552E16EFAEF14F000
:1021F000AAEC15F0FE0EDB5003E1C1EC15F009D09E
:102200001EEC15F098EC15F01EEC15F0010F98EC93
:1022100015F0020EE15C02E2E16AE552E16EEAD3FA
:10222000E4DB64A816D0D2EC15F0400EEE16EE6A90
:10223000EE6AEE6AD2EC15F0EE7CC4DBEA22EF74B3
:10224000400E146ED2EC15F01450EF16D2EC15F0CF
:10225000EF7CD0D300019C5122E1010E9C6F9D5177
:102260001EE1010E9D6F020E7C5D07E1B9DBEE52AF
:10227000EF6AB6DBC80EEF6E12007C0510E18F6BC3
:10228000C5DBEE52080EEF6EC1DBA4EC15F0BEDB31
:10229000840EEF6E010E8F6F91DB800EEF6E1200D9
:1022A00000019E6B9F6B020E7C5D06E1FFEC15F05A
:1022B000B2DB93EC15F010D080510201565D0001A5
:1022C00081510201575904E256C280F057C281F091
:1022D00061D886DBA0DB84DBC80EEF6E1200AAECAF
:1022E00015F0000EDE6E020EDD6EA8DB040DF4CFDD
:1022F00015F0D9CFE9FFDACFEAFFF350EE261550FB
:10230000ED2269DBEF9EFD0EDB5002E192DB01D096
:1023100059DBEA22DECFEEFFDDCFEDFF5CDBEF9C89
:102320005ADB040EE926000EEA22EF8C020EE15C75
:1023300002E2E16AE552E16E5DD3649800017FBF7D
:102340000DD084AF09D0020E7C6F9F5101E1A8DF50
:1023500000019D6B9C6B1200C1EF15F0020150AFA4
:102360000DD00001010E7C6F9E5101E199DF00014B
:102370009D6B9C6B9B510DE12AEF11F00001020E49
:102380007C6F1CDB840EEF6E9D6B9C6B9B5101E19F
:1023900061DF1200D9EC15F0080EDF6E0001805DE0
:1023A000000E81590AE280C0DFFF7B5102E1010E7D
:1023B00003D07B0502E1020E7B6FDF50156AE85007
:1023C000805D806F15508159816F0ADBEE52DFCF3F
:1023D000EFFF580E896F020E8A6F7FB10DD0DF506C
:1023E00017E07DC0F6FF7EC0F7FF7D2B000E7E2339
:1023F0000800F5503DDBF3D7DF500AE07DC0E9FF70
:102400007EC0EAFF7D2B000E7E23EF5031DBF4D738
:10241000E552F0D29FDBFADAEE52EFCFDFFFDFCFEB
:1024200014F014500001855D000E865902E285C04B
:10243000DFFFDF50146E156AE850855D856F15501B
:102440008659866F010EDB6ADF50F36E010EDBCF1B
:10245000F4FFF350F45C16E2010EDB50EA6A580F09
:10246000E96E020EEA22EF50E66E82C0E9FF83C0F9
:10247000EAFF822B000E8323E552E750EF6E010E38
:10248000DB2AE2D7000ED8808555000E86550DE276
:10249000B6DBC1DABBDAEF50400B03E144DBC80E18
:1024A00002D041DB880EEF6E12D088DA840EEF6E18
:1024B0008751881107E005D088C0FAFF00018751D5
:1024C000F96EFADF0001849F9B5101E1C3DE020E29
:1024D000E15C02E2E16AE552E16E8CD26ADB000166
:1024E0007F8F46DB500EE66EE66AE66A000EE66E09
:1024F000020E97DA648CDF6A050EDF5C02E2A8DA6E
:10250000FBD7010EE66EE66AE66A620EE66E000E24
:1025100088DA649C0001080E716F020E726F000E63
:10252000636F020E646F63C065F0666F52C261F044
:10253000615102E1100E0BD0010EE66EE66A610EEB
:10254000E66E000EE66E010E42DA0001200E606FAC
:10255000E55250D2800E0201505D38E10001C00EFC
:102560007F6F02015351030A1AE0010A09E0030ACE
:102570002BE100011C0E7D6F2C0E7E6F120E1ED003
:10258000C4DAB70EF6262D0EAADA020E0001B6DA6C
:10259000F5CF80F0030EB2DAF5CF81F01200030E12
:1025A000525D0FE2B2DAB90EF6262D0E98DA7DC032
:1025B000F6FF7EC0F7FF0800F5500001806F816BC9
:1025C000120000017F6B120000017F6B1200C2DA63
:1025D0000201586B596B50511F0B020A11E0030A9C
:1025E0000CE0010A1EE100017F8F02015881000109
:1025F0008B0517E10201588314D000017F8F11D0A1
:1026000000017F8F020154BF02D0C2DA01D0C5DAC7
:102610003CDACBDA06E0DFD9EF50040B02E0010E22
:10262000586F00017FAF07D0580E7D6F020E7E6F8E
:102630007F81020E806F020EE15C02E2E16AE552E8
:10264000E16ED8D10F0153A10CD0E0D9EF50800832
:1026500007E1C6D9EF50840803E1D8D98C0EEF6E9C
:102660005391629A12006084629864820001010EA4
:102670008C6F11DA750EE7EF14F000018C6B0BDA3A
:10268000740EA5D96492609462A402D06294FCD7BF
:1026900012008FDAFD0E00018D1539E17E0E8D15C9
:1026A000E8407F0B040DF3CF63F0F4CF64F0000E2D
:1026B0006327020E642363C065F064C066F065752D
:1026C000A5D9EF503C0BE842E8420D081EE1DF6A55
:1026D000080EDF5C16E29AD9020EE926000EC2D976
:1026E000EF50E66EDF50EA6A500FE96E020EEA2202
:1026F000E552E750EF6E8AD988DAEE2AEF22DF2A18
:10270000E7D784D921DA0AD807D023D805D0FD0E1F
:102710008D15040801E12CD8E5526CD100017B6BCA
:102720009B6B9E6B9F6B8F6B7C6B5AD9EF9E717509
:1027300057D9EF9E7175F7D9EF9E7F6B806B816BD8
:10274000846B856B866B51D8A6D9030E40D99DEF5B
:1027500011F0020E00017C5D02E10AEF12F07C6BC9
:102760008F5104E12BD98C0EEF6E12008F6B12008B
:1027700020DA36D9EF50400B01E0010EDF6E000188
:102780007175080E605D0BE152C25CFF0F015C5178
:1027900003E00001100E02D00001040E606F7C0502
:1027A00013E11ED938D9F6DD020E00017B5D03E18D
:1027B00017D9840E07D0DF5003E112D9C80E02D01A
:1027C0000FD9880EEF6E0FD084AF0CD087518811CF
:1027D00007E005D088C0FAFF00018751F96EFADFE3
:1027E0000001849F7C6BE55205D102015051600BC2
:1027F000E842E842E842E842E842000901E012000B
:1028000051510C0A45E00B0A3FE00C0A31E0010A85
:1028100022E00B0A1EE0020A1CE0030A18E0080A84
:1028200010E0010A0CE00F0A08E0030A01E01200C0
:1028300000017F8F080E606F1200AAEF12F06EEF9A
:1028400012F00001610E7D6F000E7E6F0CD0E7EF7D
:1028500012F049EF14F0545100017D6F7E6B620E4F
:102860007D27000E7E237F81010E806F7F8F1200F7
:1028700000017F8F02015451EA6A620FE96E000E77
:10288000EA2252C2EFFF120006D9020EE7EF14F05F
:102890001200ABD8050EE1260201520510E150519D
:1028A0001F0B00090CE100017F8F030E0201515D37
:1028B00004E10001010E8B6F02D000018B6B02015D
:1028C000525101E074D050511F0B020870E1545175
:1028D0000F0B00096CE054510F0B040868E3200E45
:1028E0000001605D64E17F8F020154BF04D050D9C4
:1028F000CCD8D7D803D051D9C8D8D7D8EA22020E1D
:10290000EFCFDBFF09D9010B03E1000EDF9401D00B
:10291000DF8454BF02D03CD901D03FD9EA22DECFB8
:10292000EEFFDDCFEDFF030E515D0CE13ED907E078
:1029300054BF02D0B6D801D0B8D8EA22EF82840EB4
:1029400069D935D0DF7431D906E045D8EF9E43D838
:10295000EF8C04D902D03FD8EF8CDF74DDD8020BA6
:1029600002E123D90DE0020154BF02D09AD801D070
:102970009CD8EA22EF923B0E146E3DD9EFD802D0DC
:102980003B0E39D9020154510F0B156A530F146EC7
:102990000F0E1522030E14C0DBFF040E15C0DBFF63
:1029A000030EDBCFE9FF040EDBCFEAFFEF90050E4D
:1029B000E15C02E2E16AE552E16E1CD020D9C4D8A4
:1029C00093EF15F0FE0EEA6ADB34DCEF15F0E66EED
:1029D000E66AEAEF15F0DECFE9FFDDCFEAFF12008D
:1029E00071C0E9FF72C0EAFF1200D9CFE6FFE1CF64
:1029F000D9FF1200E552E7CFD9FF120054510F0B57
:102A0000E96EEA6AD890E936EA36120063C0E9FF57
:102A100064C0EAFF1200F9D8580EEE6E020EED6E99
:102A20001200E66ECFEC18F0146E050EE15E145045
:102A30001200FE0EEA6ADB34E3EF15F0FD0EDB5008
:102A4000E824166EFE0EDB50040DF350162412001F
:102A5000DF50CCD8EA22EF6ADF50C3D8EA22EF6A0F
:102A6000DF2A1200EA22EE50EFCFEAFFE96E1200F1
:102A7000E66E89C0E9FF8AC0EAFF892B000E8A232F
:102A8000E552E750EF6EDF061200EA22EECFDEFFDE
:102A9000EDCFDDFF1200000EE66EE66AE66EE66A36
:102AA000120054510F0BF1EF15F054510F0BF6EFCC
:102AB00015F0152214C0DEFF15C0DDFF1200160E42
:102AC000616E0F019F0E5B6F7B0E606E1200FE0E3B
:102AD000DBCFE6FF6FEC11F0E552E5521200F72272
:102AE0000900F5CF7DF00A00F5CF7EF01200010E4F
:102AF000E66EE66A000EE66EE66A1200F76A7D256B
:102B0000F66E7E51F722080012005251F66EF76AF7
:102B1000D890F636F7361200D950020FE96EDACFA8
:102B2000EAFFEF50120065C0E9FF66C0EAFF12003D
:102B3000040DF3CF14F0F4CF15F0000E1426020E9E
:102B4000B8DF840E0AEF16F060D8500EEE6E020E5B
:102B5000ED6E12004ADF020EE1261200020EE66E52
:102B6000E66ADECFE6FFDDCFE6FF050EE7EF14F005
:102B7000040EE66EE66AE66A540EE66E0F0E11EF7C
:102B800015F01CDF8C0EEF6E2BDF840EEF6E120043
:102B900035DF670EE926000E120030DF710EE926E0
:102BA000000E12000FDF32EF15F015DFEF50800B33
:102BB00012001BDFE6521200FE0BEA36E96E710EC0
:102BC000E926000E1200FE0BEA36E96E670EE926D2
:102BD000000E12002BEC0EF0146E060EE15E145087
:102BE0001200EA6A950FE96E000E1200EA6A900F71
:102BF000E96E000E1200EFDEE850EF16120093DFD0
:102C0000EE52080EEF6E93EF15F0020EE926000E5D
:0C2C1000EA221200E0DEE850EF12120091
:042C1C00120100029F
:102C200000000008EA220C00010001020001090274
:102C30008200040100C03209040000010301020007
:102C4000092111010001223400070581030400015C
:102C50000904010002030000000921110100012202
:102C6000310007058203400001070502034000010F
:102C700009040200020301010009211101000122DF
:102C80003F0007058303080001070503030800014F
:102C900009040300020300000009211101000122C0
:102CA0001D000705840340000107050403400001DF
:102CB00005010902A1010901A10005091901290362
:102CC00015002501950375018102950175058101A6
:102CD00005010930093109381581257F75089503EB
:102CE0008106C0C005010905A101150025013500B7
:102CF00045017501950C05091901290C81029504FE
:102D0000810105010930093126FF0046FF007508E1
:102D100095028102C005010906A101050719E029F4
:102D2000E715002501750195088102950175088157
:102D3000039505750105081901290591029501758D
:102D400003910395067508150025650507190029E7
:102D5000658100C00600FF0901A101190129401584
:102D60000026FF0075089540810019012940910057
:102D7000C0040309042603420069007400200054C3
:102D800000720061006400650020004F006E006565
:102D90000020004C00540044002E001C035500533A
:102DA0000042002000440045004C0045004700411F
:0F2DB000005400450052002E2C712D752D9B2DC7
:102DC000A1D8FD0EDB50A96EA66AA680A8509FD0A0
:102DD00099D8E652DF6AA6B20ED0FD0EDB50A96E7E
:102DE000FC0EDB50A86E040EA66E550EA76EAA0E42
:102DF000A76EA68202D0010EDF6EA6B2FED7DF500C
:102E0000E55285D07FD8050EE126010EDF6EDB6A24
:102E100087D8EF6A020EDB6AFC0EDB50F36E020EFF
:102E20007AD82FE2010EDB6A020E81D8E76E040E1B
:102E3000E7CFDBFF020EDB28E76E030EE7CFDBFFF9
:102E4000FC0EDB50F36E030E66D80CE2030E6FD857
:102E5000F36E040EDB50F35C02E1010EDB2A030E7D
:102E6000DB2AEED7FB0EDB04F36E010E54D806E32B
:102E700057D8040EDBCFEFFFDF6A03D0020EDB2A48
:102E8000CBD7DF50146E050EE15C02E2E16AE55239
:102E9000E16E14503CD036D8020EE126DF6A010EF6
:102EA000DB6AFB0EDB50F36E010E35D810E2FC0E30
:102EB000DBCFE6FF010E15D88BDFE552E552E55278
:102EC000000902E0010EDF6E010EDB2AEAD7DF50B7
:102ED000146E020EE15C02E2E16AE552E16E14500A
:102EE00016D0DB50E76EFD0EDBCF14F0FE0EDBCF0D
:102EF00015F0E7501426000E152214C0E6FF15C089
:102F0000E6FF1200D9CFE6FFE1CFD9FF1200E5526C
:102F1000E7CFD9FF1200DBCFF4FFF350F45C1200CF
:102F2000F90EDBCFE9FFFA0EDBCFEAFF1200D9DFA3
:082F300047DFE552E5521200F3
:082F3800020150511F0B0108BA
:102F400001E01200060E515D4EE15351230A4BE0A1
:102F5000010A21E0030A47E15451030A15E0010A7E
:102F60000EE0030A07E0010A3EE10001400E7D6F1A
:102F70002C0E0ED00001590E7D6F2C0E09D00001D1
:102F8000790E7D6F2C0E04D00001990E7D6F2C0EF2
:102F90007E6F090E24D05451030A1BE0010A12E08F
:102FA000030A09E0010A1FE10001B00E7D6F2C0E3B
:102FB0007E6F340E14D00001E40E7D6F2C0E7E6FF8
:102FC000310E0DD00001150E7D6F2D0E7E6F3F0E60
:102FD00006D00001540E7D6F2D0E7E6F1D0E806F8A
:102FE000816BC00E7F6F02015051600BE842E842D6
:102FF000E842E842E842010801E0120051510B0AA0
:1030000026E0080A19E0090A11E0080A05E00B0A9F
:1030100023E0080A21E012000001FB0E7D6F000E84
:103020007E6F010E806F816BC10E0FD00001800E8C
:103030007F6F53C2FBF012000001FC0E7D6F000E8B
:103040007E6F010E806F816B810E7F6F1200000119
:0A305000800E7F6F52C2FCF01200E8
:06305A00006A0EAE36EF25
:1030600018F00D6C0E1EE86A0E22001E09AE3EEF2F
:1030700018F0086C091EE86A0922001EF7EC18F027
:1030800009BE4EEF18F000AE000C086C091EE86A8D
:103090000922046C051EE86A0522000C00BE45EFFB
:1030A00018F00188FF0C09C013F008C012F0085096
:1030B0000D02F4CF07F0F3CF06F009500E02F4CF63
:1030C00009F0F3CF08F00D02F3500726F450082260
:1030D000E86A092212500E02F3500726F450082223
:1030E000E86A09220EAE79EF18F01250085E13500C
:1030F000095A13AE000C0D50085E0E50095A000C10
:103100001E0EF66E100EF76E000EF86E010109002D
:10311000F550456F0900F550466F03E1456701D052
:103120003DD00900F550406F0900F550416F09008E
:10313000F550426F09000900F550E96E0900F5509D
:10314000EA6E090009000900F550436F0900F550C7
:10315000446F09000900F6CF47F1F7CF48F1F8CFE7
:1031600049F140C1F6FF41C1F7FF42C1F8FF01013B
:10317000435302E1445307E00900F550EE6E430764
:10318000F8E24407F9D747C1F6FF48C1F7FF49C144
:0E319000F8FF01014507000E465BBFD7120095
:02319E00FE0E23
:1031A000E3CFE9FFFF0EE3CFEAFFE9CFF3FFEACF7A
:1031B000F4FFFB0EE35003E1FC0EE35009E0FB0ECD
:1031C000E30602E2FC0EE306FD0EE350EE6EF1D7DD
:1031D0001200FE0EE3CFE9FFFF0EE3CFEAFFF36A32
:0E31E000F46AEE5203E0F34AF42AFBD7120021
:0231EE00056A70
:1031F000046A100EE76ED890083609360436053694
:103200000D50045C0E50055805E30D50045E0E5041
:0A321000055A082AE72EF0D7120035
:06321A00000EF36E00EE51
:1032200000F0030E01D81200EA6002D0EE6AFCD76B
:0A323000F350E9601200EE6AFCD7CB
:06323A0011EE00F021EE90
:1032400000F0F86A019C80EC18F003EC08F026EC22
:0632500008F0FBD712009C
:0A325600302E302E3800000000007A
:10326000000000000000000000000000000000005E
:10327000000000000000000000000000000000004E
:0B328000000000000000000000000043
:020000040030CA
:0100000000FF
:0100010032CC
:0100020021DC
:010003001EDE
:0100050000FA
:010006008178
:0100080003F4
:01000900C036
:01000A0003F2
:01000B00E014
:01000C0003F0
:01000D0040B2
:00000001FF
